:0400000002005B326D
:01000B0032C2
:0100130032BA
:01001B0032B2
:0100230032AA
:03002B0002030FBE
:03003300020CFFBD
:01003B003292
:03004300020D06A5
:03004B0002102C74
:03005300020D9B00
:1000B400750800750900750A00750B00750D00C2FE
:0100C4000A31
:0300E600020056BF
:050056001200FE80FE17
:1000E900C200C201C202C203C204C205C206C207DB
:1000F900C208C209227A007B007C00C002C003C08A
:10010900041200E9D004D003D00290E600E0FD44D7
:1001190010F0000000000000000090E618E4F00074
:100129000000000000000090E619E4F00000000063
:100139000000000090E61AE4F00000000000000052
:100149000090E61BE4F0000000000000000090E6CB
:10015900017403F0000000000000000090E670E464
:10016900F0000000000000000075B28800000000E7
:10017900000000007580000000000000000000750C
:10018900B5AF000000000000000075B000000000DD
:100199000000000000538EDF75CA5F75CBF075C88B
:1001A9000443A82090E6827404F0D2E843D820C022
:1001B90002C003C004120DCDD004D003D00290E6D2
:1001C90068E0FD4402F00000000000000000D2EAEF
:1001D900000000000000000090E65C7413F00000CD
:1001E90000000000000090E65EE0FD4402F000001F
:1001F900000000000000D2AF000000000000000075
:10020900538EF8C002C003C004120383D004D00384
:10021900D00200000000000000007401B50902804E
:10022900030202C17509008C050CBD01167C00741E
:1002390001B5160FC002C003C00412053CD004D09A
:1002490003D0028A058B060ABA00010BBDE847BE36
:100259000344430B017A007B00C002C003C00412AF
:1002690014C3D004D003D002E530FD6003BDFF0400
:10027900C20A8022200A1D74084540FD8D40C00233
:10028900C003C004C0057582101215A91581D004D8
:10029900D003D002D20AE50B30E01D90000D75F0B5
:1002A90040C002C003C004120FA9AD82D004D0031C
:1002B900D002BD0103530BFEE5087003020223E5DA
:1002C9000830E01853A87F5308FE43A880C002C035
:1002D90003C0041205A6D004D003D002E50830E11A
:1002E9000953A87F5308FD43A880E50820E20302CB
:1002F900022353A87F5308FB43A880000000000095
:0D03090000000002022375090153C87F3275
:1000C500750E00750F00751000751101751200751C
:0500D500130075160088
:1003160090E6BAE0F5147582012290E740E514F004
:1003260090E68AE4F090E68B7401F07582012290E3
:10033600E6BAE0F5157582012290E740E515F090E2
:10034600E68AE4F090E68B7401F07582012290E56E
:100356000DE0FA30E4047582002275820122AA8239
:10036600AB838A048B051ABAFF011BEC4D600DC0E6
:1003760002C003121819D003D00280E62290E6804C
:10038600E0440AF09005DC12036490E65D74FFF029
:100396005391EF90E680E054F7F022AA827B787CB6
:1003A6003E8B828C83A3E0FDBD03278A051AED7080
:1003B600058B828C8322C0028B058C068B828C83F4
:1003C600E0FF7A00EF2DFDEA3EFE8D038E04D0029B
:1003D60080CF9000002290E60B7403F0000000002E
:1003E6000000000090E61274D2F000000000000049
:1003F600000090E61374A0F000000000000000006A
:1004060090E6147492F0000000000000000090E6F0
:100416001574D0F0000000000000000090E619E01E
:10042600FA54EFF0000000000000000090E61AE029
:10043600FA54EFF0000000000000000090E604749B
:1004460080F0000000000000000090E6047404F054
:10045600000000000000000090E6047406F00000B2
:1004660000000000000090E6047402F000000000A6
:100476000000000090E6047408F000000000000090
:10048600000090E604E4F000000000000000009088
:10049600E6187404F0000000000000000090E61B5F
:1004A6007404F0000000000000000090E649748427
:1004B600F0000000000000000090E6497484F0009F
:1004C6000000000000000090E6497486F00000007D
:1004D600000000000090E6497486F000000000006D
:1004E60000000090E6197410F00000000000000003
:1004F6000090E61A7410F000000000000000009062
:10050600E6207402F0000000000000000090E621E2
:10051600E4F0000000000000000090E6267402F0FF
:10052600000000000000000090E627E4F000000054
:10053600000000000022200A107A02BA0800500CBF
:10054600EA2430F876000A80F21214C30090FC0008
:100556007408F00090FC01E4F07A02BA0800501426
:10056600008A037CFCEA2430F886058B828C83EDB6
:10057600F00A80E700000000000000000000000014
:100586000000000090E69CE4F0000000000000007F
:1005960000000000000000000090E69D7408F022B4
:1005A60090E6B9E0FABA000302071BBA0103020794
:1005B600BDBA0303020877BA06028075BA080302B9
:1005C6000715BA090302070FBA0A03020703BA0B93
:1005D60003020709BAB103020A5DBAB30302091F8F
:1005E600BABB03020CBBBAC003020C74BAC1030245
:1005F6000AC5BAC203020B55BAC303020913BAC429
:1006060003020919BAC503020A99BAC603020AF314
:10061600BAC703020AAFBAC803020B24BAC9030257
:100626000BA3BACA03020C05BACB03020C4E020C8A
:10063600D390E6BBE0FABA01028017BA02028050F4
:10064600BA03028079BA0602801FBA0702805802EE
:1006560006F87A007B3E90E6B3EBF07A007B3E7BB1
:100666000090E6B4EAF0020CDB7454FA60177A12D2
:100676007B3E90E6B3EBF07A127B3E7B0090E6B4CD
:10068600EAF0020CDB90E6A0E0FA4401F0020CDB93
:100696007A1C7B3E90E6B3EBF07A1C7B3E7B0090A7
:1006A600E6B4EAF0020CDB7A4A7B3E90E6B3EBF066
:1006B6007A4A7B3E7B0090E6B4EAF0020CDB90E6D9
:1006C600BAE0F5821203A1AA82AB837C008A058B6D
:1006D600068C07EA4B4C600F90E6B3EEF07E009076
:1006E600E6B4EDF0020CDB90E6A0E0FA4401F0027D
:1006F6000CDB90E6A0E0FA4401F0020CDB12033FAB
:10070600020CDB120335020CDB120316020CDB12A1
:100716000320020CDB90E6B8E0FABA8002800DBA3C
:100726008102802CBA8202803D0207B2E5132513AE
:10073600FA901863E493FB420290E740EAF090E7F0
:1007460041E4F090E68AF090E68B7402F0020CDB4E
:1007560090E740E4F090E741F090E68AF090E68B6F
:100766007402F0020CDB90E6BCE0FA53027E90E6DF
:10077600BCE0FB7480B50300E4334A90186493FA36
:100786003395E0FB74A12AFA74E63BFB8A828B83DD
:10079600E0FA53020190E740EAF090E741E4F09076
:1007A600E68AF090E68B7402F0020CDB90E6A0E09D
:1007B600FA4401F0020CDB90E6B8E0FA6008BA02EF
:1007C60002801C020CDB90E6BAE0FABA0106751349
:1007D60000020CDB90E6A0E0FA4401F0020CDB908C
:1007E600E6BAE0600302086C90E6BCE0FA53027ECB
:1007F60090E6BCE0FB7480B50300E4334A901864CD
:1008060093FA3395E0FB74A12AFA74E63BFB90E673
:10081600BCE0FC53047E90E6BCE0FD7480B50500A8
:10082600E4334C90186493FC3395E0FD74A12CFCE2
:1008360074E63DFD8C828D83E0FC5304FE8A828B38
:1008460083ECF090E6BCE05480C423541FFA90E693
:10085600BCE0FB740F5B90E6832AF090E683E0FA37
:100866004420F0020CDB90E6A0E0FA4401F0020C12
:10087600DB90E6B8E0FA6008BA02028027020908AF
:1008860090E6BAE0FABA0106751301020CDB90E6AF
:10089600BAE0FABA0203020CDB90E6A0E0FA4401E1
:1008A600F0020CDB90E6BCE0FA53027E90E6BCE078
:1008B600FB7480B50300E4334A90186493FA3395C9
:1008C600E0FB74A12AFA74E63BFB90E6BCE0FC531D
:1008D600047E90E6BCE0FD7480B50500E4334C90E0
:1008E600186493FC3395E0FD74A12CFC74E63DFD81
:1008F6008C828D83E0FC4304018A828B83ECF002B8
:100906000CDB90E6A0E0FA4401F0020CDB75160160
:10091600020CDB751600020CDB75170F75180474D4
:1009260018C0E07400C0E07440C0E0740FC0E0740A
:1009360001C0E07582C0121199E58124FBF581752D
:1009460030007A00E53020E1208A030ABB640050BB
:1009560018C002740FC0E07401C0E07582C01211A5
:10096600FA15811581D00280DBE4F517F5187418A5
:10097600C0E07400C0E07440C0E0E4C0E07401C0B0
:10098600E0758240121199E58124FBF58175170FF8
:100996007518087418C0E07400C0E07440C0E074B4
:1009A6000FC0E07401C0E07582C0121199E5812480
:1009B600FBF581007530007A00E53020E0208A03DF
:1009C6000ABB64005018C002740FC0E07401C0E096
:1009D6007582C01211FA15811581D00280DB75303F
:1009E600007A00E53020E1208A030ABB6400501833
:1009F600C002740FC0E07401C0E07582C01211FA23
:100A060015811581D00280DB7517207518197418A9
:100A1600C0E07400C0E07440C0E07420C0E074011F
:100A2600C0E0758240121199E58124FBF5817517A6
:100A36000F7518087418C0E07400C0E07440C0E078
:100A4600740FC0E07401C0E07582C0121199E5818F
:100A560024FBF581020CDB43B0A00000000000007F
:100A6600000000000000000000001203DC0000008F
:100A76000000000000000000000000000053B0DF8E
:100A86000000000000000000000000000000000060
:100A9600020CDB90E6BCE0FA90E6BAE0FBC0028B03
:100AA600821214341581020CDB90E6BCE0FA90E663
:100AB600BAE0FBC0028B821215A91581020CDB90ED
:100AC600E6BAE0F51790E6BCE0FA8A187418C0E0BA
:100AD6007400C0E07440C0E0C0177401C0E07582C5
:100AE600C0121199E58124FBF581020CDB12134E2D
:100AF6007A00BA4000501800EA2440FBE434E7FCD0
:100B0600EA2430F886058B828C83EDF00A80E300B8
:100B160090E68AE4F090E68B7440F0020CDB121447
:100B2600C37A00BA4000501800EA2440FBE434E7D8
:100B3600FCEA2430F886058B828C83EDF00A80E38C
:100B46000090E68AE4F090E68B7440F0020CDBE459
:100B5600C0E07420C0E07582C01211FA15811581BB
:100B66007A00BA2000502700EA2440FBE434E7FC70
:100B7600EA2430F886058B828C83EDF00074202AF7
:100B86002440F582E434E7F583E4F00A80D400904B
:100B9600E68AE4F090E68B7440F0020CDB90E6BB4C
:100BA600E0F51990E6BAE0F51A90E6BCE0F51B53BD
:100BB6001B0790E68AE4F090E68B7440F090E6011D
:100BC600E4F0000000000000000075B259000000CB
:100BD6000000000000758009000000000000000011
:100BE6007A007B00E512700EBB640050098A040A85
:100BF600BCFFF10B80EE751200121638020CDB906A
:100C0600E6BBE0F51990E6BAE0F51A90E6BCE0F529
:100C16001B531B0790E601E4F000000000000000F3
:100C26000075B25900000000000000007580090040
:100C36000000000000000012173390E68AE4F090EE
:100C4600E68B7440F0020CDB90E6017403F00000C2
:100C560000000000000075B28800000000000000DF
:100C6600007580000000000000000000806790E72B
:100C760040E50DF00090E7417402F000900002E0BC
:100C8600FA90E742F000900001E0FA90E743F000A6
:100C960090E744E4F00090E745E4F00090E746E48E
:100CA600F00090E747E4F00090E68AE4F090E68BE7
:100CB6007408F0802075160053B07F000000000015
:100CC6000000000000000000000000800890E6A080
:100CD600E0FA4401F090E6A0E04480F022E51160DD
:100CE60001225380F7000000000000000000000011
:100CF60000000000004387012253D8EF751101322E
:100D0600C0E0C082C083C0025391EF90E65DE0FA76
:100D160030E00C43080175120090E65D7401F09016
:100D2600E65DE0FA30E13290E684E0F50E90E68585
:100D3600E0F50FC28C758A00758C00D28C438080DA
:100D4600000000000000000053807F00000000004B
:100D560000000090E65D7402F090E65DE0FA30E493
:100D66000690E65D7410F090E65DE0FA30E30C4321
:100D7600080275110090E65D7408F090E65FE0FAEF
:100D860030E10975120190E65F7402F0D002D0835B
:100D9600D082D0E032C0E0C082C083C0025391BF8F
:100DA60090E651E0FA30E01643080490E650E4F08D
:100DB600000000000000000090E6517401F0D0022F
:070DC600D083D082D0E0329F
:0B18630000000102020303040405055D
:0218760001026D
:0C00DA00752900752A00752B00752C009C
:100DCD00752700752800752900D2E990E67AE04470
:100DDD0002F022C01C85811CAA82E5276005758260
:100DED0000802FE51C24FDF88622E51C24FAF886E8
:100DFD002308862408862575260075270375280087
:100E0D0090E678E0FB4480F0EA2AFA90E679F075F6
:100E1D008201D01C22C01C85811CAA82E527600599
:100E2D007582008030E51C24FDF88622E51C24FA2D
:100E3D00F8862308862408862575260075270175F2
:100E4D00280090E678E0FB4480F0EA2AFA90E679F3
:100E5D0004F0758201D01C22E527700BE528700384
:100E6D00F582227582012275820222C01C85811CA9
:100E7D00AA82E4B52A0280127401B52A0280477451
:100E8D0002B52A03020F04020F407401B52906753D
:100E9D008200020F43E51C24FBF8E6C0E008E6C023
:100EAD00E008E6C0E0C002758251120DE0AA82E5AD
:100EBD008124FCF581EA7005F582020F4375290145
:100ECD00752A01020F40120E65AA82BA02057582BB
:100EDD00008063E51C24FBF8E6C0E008E6C0E008EE
:100EED00E6C0E0E4C0E0758251120DE0E58124FC1E
:100EFD00F581752A02803C120E65AA82BA0205752B
:100F0D0082008032120E65E5827009F52AF5297589
:100F1D0082018022E51C24FBF8E6C0E008E6C0E073
:100F2D0008E6C0E0E4C0E0758251120DE0E58124D1
:100F3D00FCF581758200D01C22C01C85811CAA8203
:100F4D00E4B52B0280077401B52B4B80397401B5C4
:100F5D0029057582008042E51C24FBF8E6C0E008F7
:100F6D00E6C0E008E6C0E0C002758251120E22AA6A
:100F7D0082E58124FCF581EA7004F582801B7529D8
:100F8D0001752B018010120E65E5827009F52BF5A8
:100F9D00297582018003758200D01C22AA82AB8341
:100FAD00ACF0E4B52C02800A7401B52C0280380235
:100FBD0010287401B5290475820022742DC0E074C7
:100FCD0000C0E07440C0E07401C0E0758248120EAC
:100FDD0022AD82E58124FCF581ED7003F582227549
:100FED002901752C018034C002C003C004120E65A6
:100FFD00AD82D004D003D0028D06BD0204758200EF
:10100D0022752C00752900BE0102800B8A828B830C
:10101D008CF0E52D12182A7582012275820022C0EE
:10102D00E0C0F0C082C083C002C003C004C005C0D0
:10103D00D075D0005391DFAA27BA041190E678E05D
:10104D00FB30E60302114275270002114290E6784B
:10105D00E0FB30E20975270075280102114290E688
:10106D0078E0FB20E119BA03028003BA011175285B
:10107D000275270490E678E0FB4440F0021142BA75
:10108D000102800EBA02028035BA030302110C026E
:10109D0011427527027401B5220890E678E0FA44F2
:1010AD0020F0E5262523FAE43524FBAC2590E679DE
:1010BD00E0FD8A828B838CF012182A021142AA223B
:1010CD00BA020890E678E0FB4420F0EA14F522BA63
:1010DD00010B75270490E678E0FA4440F0AA23ABA3
:1010ED0024AC25E526FD04F526ED2AFAE43BFB901C
:1010FD00E679E0FD8A828B838CF012182A8036E522
:10110D0022FA14F522EA700D75270490E678E0FABC
:10111D004440F08020AA23AB24AC25E526FD04F540
:10112D0026ED2AFAE43BFB8A828B838CF01218435E
:10113D00FA90E679F0D0D0D005D004D003D002D00B
:10114D0083D082D0F0D0E032AA827B00BB08005061
:10115D001AEB90186E93FC5A600543B00880035348
:10116D00B0F743B00153B0FE0B80E1227A007B0053
:10117D00BB0800501243B001EA2AFAE5B030E40191
:10118D000A53B0FE0B80E9008A2F0022C01C858116
:10119D001CAA82E51C24FDF8748046FBE51C24FC8A
:1011AD00F8E6420243B002008B82C002121155D004
:1011BD00028A821211557A00E51C24FDF8C3EA96C5
:1011CD005024E51C24F9F8EA26FBE40836FC0886D1
:1011DD00058B828C838DF0121843F582C00212119B
:1011ED0055D0020A80D253B0FD00D01C22C01C8500
:1011FD00811CAA82E51C24FDF886038B04E51C24C2
:10120D00FCF8E6420243B002008C82C002C0031219
:10121D001155D003D0028A82C003121155D0035349
:10122D00B0FD000043B0040043B0010053B0FE0018
:10123D00007A00EAB503005014C002C00312117900
:10124D00D003D002EA2430F8A62F0A80E653B0FB73
:10125D0000D01C22009000007401F07400C0E074F6
:10126D0000C0E0E4C0E0E4C0E07401C0E07582C0FD
:10127D00121199E58124FBF581002200900000E414
:10128D00F07400C0E07400C0E0E4C0E0E4C0E074BD
:10129D0001C0E07582C0121199E58124FBF5810032
:1012AD0022009000007408F07400C0E07400C0E0EB
:1012BD00E4C0E07401C0E07401C0E07582C0121199
:1012CD0099E58124FBF5810022009000007480F0E7
:1012DD007400C0E07400C0E0E4C0E07401C0E074CC
:1012ED0001C0E07582C0121199E58124FBF58100E2
:1012FD0022009000007404F07400C0E07400C0E09F
:10130D00E4C0E07401C0E07401C0E07582C0121148
:10131D0099E58124FBF5810022009000007440F0D6
:10132D007400C0E07400C0E0E4C0E07401C0E0747B
:10133D0001C0E07582C0121199E58124FBF5810091
:10134D0022C01C85811C0581A81C08760488027B9F
:10135D00007C40C000C002C003C004740FC0E07424
:10136D0001C0E07582C0121199E58124FBF581D091
:10137D00007530007A00E53020E1248A030ABB6451
:10138D0000501CC002C000740FC0E07401C0E075B5
:10139D0082C01211FA15811581D000D00280D77646
:1013AD000088027B007C40C000C002C003C004E482
:1013BD00C0E07401C0E0758240121199E58124FBF3
:1013CD00F581D000760888027B007C40C002C00306
:1013DD00C004740FC0E07401C0E07582C012119991
:1013ED00E58124FBF5817530007A00E53020E020A1
:1013FD008A030ABB64005018C002740FC0E0740168
:10140D00C0E07582C01211FA15811581D00280DB02
:10141D00E4C0E07440C0E07582401211FA158115E8
:10142D0081851C81D01C22C01C85811C0581AA824E
:10143D00A81C08E51C24FDF9E7F67530007B00E5D6
:10144D003020E1288B040BBC64005020C002C00387
:10145D00C000740FC0E07401C0E07582C01211FAB3
:10146D0015811581D000D003D00280D388037C0074
:10147D007D40C000C003C004C005C0027401C0E0BF
:10148D00758240121199E58124FBF581D000760813
:10149D0088027B007C40C002C003C004740FC0E012
:1014AD007401C0E07582C0121199E58124FBF581AC
:1014BD00851C81D01C22C01C85811C0581A81C089F
:1014CD00764088027B007C40C000C002C003C0048F
:1014DD00740FC0E07401C0E07582C0121199E581EE
:1014ED0024FBF581D0007530007A00E53020E5242D
:1014FD008A030ABB6400501CC002C000740FC0E018
:10150D007401C0E07582C01211FA15811581D000E9
:10151D00D00280D776FF88027B007C40C000C002DD
:10152D00C003C004E4C0E07401C0E07582801211F4
:10153D0099E58124FBF581D000768088027B007CC3
:10154D0040C002C003C004740FC0E07401C0E07558
:10155D0082C0121199E58124FBF5817530007A0066
:10156D00E53020E4208A030ABB64005018C00274E1
:10157D000FC0E07401C0E07582C01211FA1581151B
:10158D0081D00280DBE4C0E07440C0E0758280123F
:10159D0011FA15811581851C81D01C22C01C8581F5
:1015AD001C0581AA82A81C08E51C24FDF9E7F67527
:1015BD0030007B00E53020E5288B040BBC64005027
:1015CD0020C002C003C000740FC0E07401C0E075FC
:1015DD0082C01211FA15811581D000D003D002807E
:1015ED00D388037C007D40C000C003C004C005C08B
:1015FD00027401C0E0758280121199E58124FBF51A
:10160D0081D000768088027B007C40C002C003C080
:10161D0004740FC0E07401C0E07582C0121199E529
:0B162D008124FBF581851C81D01C226C
:08186E00804020100804020173
:101638005380EF00000000000000005380FE00000F
:101648000000000000007582841217B6758200122F
:1016580017B6E51B0303543FF5821217B6E51B03C3
:101668000354C0F5821217B67404B51B047A0880B7
:10167800027A407B00EBB50200501BEB2440F58258
:10168800E434E7F583E0F582C002C0031217B6D050
:1016980003D0020B80DF438001000000000000003F
:1016A800007404B51B028001225380FE0000000074
:1016B800000000007582831217B6E5192519FAE5AE
:1016C8001A2354014AF5821217B6E51A251AF5822B
:1016D8001217B67582001217B6000000000000004D
:1016E8000043800100000000000000005380FE005D
:1016F800000000000000007582D71217B67A007B40
:1017080000C002C0031217E8E582D003D00220E728
:101718000EBB640050098A040ABCFFE50B80E24353
:1017280080010000000000000000225380EF00004C
:101738000000000000005380FE00000000000000D0
:101748000075820B1217B6E5192519FAE51A235404
:10175800014AF5821217B6E51A251AFAE51B0303A2
:10176800543F4AF5821217B6E51B030354C0F582AD
:101778001217B67582001217B67A00BA40005022C6
:10178800EA2440FBE434E7FCC002C003C00412179B
:10179800E8AD82D004D003D0028B828C83EDF00AAE
:1017A80080D9438001000000000000000022AA82C6
:1017B8007B00BB08005028EA30E7054380408003DF
:1017C8005380BFEA2AFA438010000000000000009E
:1017D800005380EF00000000000000000B80D322BF
:1017E8007A007B00BB08005025EA2AFAE580FC3025
:1017F800E5034302014380100000000000000000E0
:101808005380EF00000000000000000B80D68A82A1
:0118180022AD
:103E000012010002000000403921050101000102F9
:103E100000010A06000200000040010009022E0015
:103E200001010080320904000004FF0000000705C2
:103E300082010002010705040200020107050601D4
:103E40000002040705880100020109022E00010199
:103E50000080320904000004FF0000000705820111
:103E60000002010705040200020107050601000225
:103E70000107058802000201040309041403650018
:103E80006900670065006E006C00610062007300ED
:103E90000E035000530055002D004D004D00000052
:101819007400F58690FED37C05A3E582458370F9B3
:01182900229C
:06008A00E478FFF6D8FD4A
:100068007902E94400601B7A01901876780175A03E
:1000780000E493F2A308B8000205A0D9F4DAF275F7
:02008800A0FFD7
:10182A0020F71030F6118883A88220F507F6A883DE
:09183A0075830022F280F7F02210
:100090007800E84400600A790075A000E4F309D80C
:1000A000FC7801E84400600C7901900000E4F0A3C2
:0400B000D8FCD9FAA5
:0D005B0075816F12185FE582600302005688
:1018430020F71430F6148883A88220F507E6A883CE
:1018530075830022E280F7E49322E022758200225E
:00000001FF
