:0400000002005B326D
:01000B0032C2
:0100130032BA
:01001B0032B2
:0100230032AA
:03002B00020328A5
:03003300020FEECB
:01003B003292
:03004300020FF5B4
:03004B0002131B82
:0300530002108A0E
:1000B400750800750900750A00750B00750D00C2FE
:0100C4000A31
:0300EC00020056B9
:0500560012010480FE10
:1000EF00C200C201C202C203C204C205C206C207D5
:1000FF00C208C209227A00C0021200EFD00290E6B5
:10010F0000E0FB4410F0000000000000000090E64B
:10011F0018E4F0000000000000000090E619E4F081
:10012F00000000000000000090E61AE4F00000005C
:10013F00000000000090E61BE4F00000000000004B
:10014F00000090E6017403F00000000000000000C2
:10015F0090E670E4F0000000000000000075B28827
:10016F00000000000000000075800000000000008B
:10017F0000000075B5AF000000000000000075B072
:10018F00000000000000000000538EDF75CA5F758D
:10019F00CBF075C80443A82090E6827404F0D2E82F
:1001AF0043D820C0021210BCD00290E668E0FB4496
:1001BF0002F00000000000000000D2EA0000000082
:1001CF000000000090E65C7413F0000000000000D7
:1001DF00000090E65EE0FB4402F00000000000002B
:1001EF000000D2AF0000000000000000538EF87B2B
:1001FF00007C00C3EB94D0EC9407500F7401B50949
:10020F00F27509000BBB00EB0C80E87B007C00C093
:10021F0002C003C00412039CD004D003D00200001C
:10022F000000000000007401B5090280030202DA29
:10023F00750900C002C003C0041206E9D004D00340
:10024F00D0028A050ABD01117A00C002C003C004A2
:10025F0012056BD004D003D0028B058C060BBB00AC
:10026F00010CBDE844BE03417B007C00430B01C081
:10027F0002C003C004121805D004D003D002E53029
:10028F00FD6003BDFF04C20A801F74084540FD8D49
:10029F0040C002C003C004C00575821012191215A8
:1002AF0081D004D003D002D20AE50B30E01D9000BC
:1002BF000D75F040C002C003C004121298AD82D079
:1002CF0004D003D002BD0103530BFEE508700302F7
:1002DF000235E50830E01853A87F5308FE43A88085
:1002EF00C002C003C00412086AD004D003D002E5D4
:1002FF000830E10953A87F5308FD43A880E5082083
:10030F00E20302023553A87F5308FB43A880000085
:10031F0000000000000002023575090153C87F324A
:1000C500750E00750F00751001751100751200751C
:0B00D500150075160075170075180067
:10032F0090E6BAE0F5137582012290E740E513F0ED
:10033F0090E68AE4F090E68B7401F07582012290CA
:10034F00E6BAE0F5147582012290E740E514F090CB
:10035F00E68AE4F090E68B7401F07582012290E555
:10036F000DE0FA30E4047582002275820122AA8220
:10037F00AB838A048B051ABAFF011BEC4D600DC0CD
:10038F0002C003121BAED003D00280E62290E6809B
:10039F00E0440AF09005DC12037D90E65D74FFF0F7
:1003AF005391EF90E680E054F7F022AA827B867C8F
:1003BF003E8B828C83A3E0FDBD03278A051AED7067
:1003CF00058B828C8322C0028B058C068B828C83DB
:1003DF00E0FF7A00EF2DFDEA3EFE8D038E04D00282
:1003EF0080CF9000002290E60B7403F00000000015
:1003FF000000000090E61074A0F000000000000064
:10040F00000090E61274D2F000000000000000001F
:10041F0090E61374A0F0000000000000000090E6CA
:10042F00147492F0000000000000000090E61574B4
:10043F00D0F0000000000000000090E619E0FA5430
:10044F00EFF0000000000000000090E61AE0FA5400
:10045F00EFF0000000000000000090E6047480F050
:10046F00000000000000000090E6047404F000009B
:10047F0000000000000090E6047406F00000000089
:10048F000000000090E6047402F00000000000007D
:10049F00000090E6047408F0000000000000000067
:1004AF0090E604E4F0000000000000000090E61861
:1004BF007404F0000000000000000090E61B7404BC
:1004CF00F0000000000000000090E6497484F00086
:1004DF000000000000000090E6497484F000000066
:1004EF00000000000090E6497486F0000000000054
:1004FF0000000090E6497486F00000000000000044
:10050F000090E6197410F000000000000000009049
:10051F00E61A7410F0000000000000000090E620C2
:10052F007402F0000000000000000090E621E4F0EB
:10053F00000000000000000090E6267402F00000AA
:10054F0000000000000090E627E4F000000000002B
:10055F0000000090E68DE4F075180022C01E858122
:10056F001E0581E515700BE5167007E51770030280
:10057F0006E37A00200A17C002E4C0E0740AC0E064
:10058F007582C01214E915811581D0028007C0024F
:10059F00121805D0027401B5152D0090FC007408D7
:1005AF00F00090FC01E4F07B027C02BC08005015C7
:1005BF00008B050B7EFCEC2430F886078D828E8332
:1005CF00EFF00C80E68B027401B516028003020671
:1005DF00B6E53720E5030206B68A030A8B827583D8
:1005EF00FC740AF08A030A8A047D00E53720E503CC
:1005FF0002069DBD0800400302069D8C060C8E82EC
:10060F007583FCE538F00D200A37C003A81E087665
:10061F001088067F007B40C003C004C005C006C021
:10062F0007C0037407C0E07401C0E07582C01214E4
:10063F0088E58124FBF581D005D004D003D0038059
:10064F0018C003C004C0057410C0E07582071219EA
:10065F00121581D005D004D003200A20C003C00496
:10066F00C005E4C0E0740AC0E07582C01214E91539
:10067F00811581D005D004D0030205FAC003C00450
:10068F00C005121805D005D004D0030205FA8C025C
:10069F00EDFE30E00AEC04FA8C827583FCE4F00086
:1006AF008B827583FCEEF0EA602A000000000000E8
:1006BF000000000000000000000090E69CE4F00045
:1006CF00000000000000000000000000000000908B
:1006DF00E69DEAF0851E81D01E22C01E85811E0573
:1006EF008190E6A1E0FA30E103020864E516700F8D
:1006FF00E517700B90E68DE4F07518000208649012
:10070F00E68DE0FAE518B50200400302085CE51833
:10071F002480F582E434E7F583E0FABA1A02800305
:10072F00020826200A13E4C0E0740AC0E07582C0F4
:10073F001214E9158115818003121805E53720E29F
:10074F00030208240518AA180518EA2480F582E484
:10075F0034E7F583E0FA7408B50200500990E68D8E
:10076F00E0F5180208647B00EBB5020040030208B5
:10077F0018200A63A81E08AC180518EC2480F5820F
:10078F00E434E7F583E0F688047D007E40C002C0C4
:10079F0003C000C004C005C0067409C0E07401C0E6
:1007AF00E07582C0121488E58124FBF581D00076B4
:1007BF000188047D007E40C004C005C0067407C0D8
:1007CF00E07401C0E07582C0121488E58124FBF546
:1007DF0081D003D002802EAC180518EC2480F5824E
:1007EF00E434E7F583E0FCC002C003C0047582095E
:1007FF0012191215817401C0E075820712191215B2
:10080F0081D003D0020B020777EA20E00302070E24
:10081F00051802070E803EE5182480F582E434E7C0
:10082F00F583E0FABA1B0890E68DE0F518801EE517
:10083F00182480F582E434E7F583E0FABA1C0890B7
:10084F00E68DE0F518800690E68DE0F51890E68DC0
:10085F00E4F0751800851E81D01E2290E6B9E0FAEB
:10086F00BA00030209F8BA0103020A9ABA03030293
:10087F000B54BA0603020914BA08030209F2BA09A3
:10088F00030209ECBA0A030209E0BA0B030209E6F4
:10089F00BAB103020D52BAB303020C14BABB03026E
:1008AF000FAABAC003020F69BAC103020DBABAC2C6
:1008BF0003020E4ABAC303020BF0BAC403020BF6CB
:1008CF00BAC503020D8EBAC603020DE8BAC70302FA
:1008DF000DA4BAC803020E19BAC903020E98BACAF8
:1008EF0003020EFABACB03020F43BACC03020BFC7E
:1008FF00BACD03020C02BACE03020C08BACF030220
:10090F000C0E020FC290E6BBE0FABA01028017BAD2
:10091F0002028050BA03028079BA0602801FBA071A
:10092F000280580209D57A007B3E90E6B3EBF07A4D
:10093F00007B3E7B0090E6B4EAF0020FCA746DFABA
:10094F0060177A127B3E90E6B3EBF07A127B3E7B18
:10095F000090E6B4EAF0020FCA90E6A0E0FA440174
:10096F00F0020FCA7A1C7B3E90E6B3EBF07A1C7B49
:10097F003E7B0090E6B4EAF0020FCA7A517B3E90BC
:10098F00E6B3EBF07A517B3E7B0090E6B4EAF002DF
:10099F000FCA90E6BAE0F5821203BAAA82AB837C43
:1009AF00008A058B068C07EA4B4C600F90E6B3EE7E
:1009BF00F07E0090E6B4EDF0020FCA90E6A0E0FAE8
:1009CF004401F0020FCA90E6A0E0FA4401F0020FD2
:1009DF00CA120358020FCA12034E020FCA12032F74
:1009EF00020FCA120339020FCA90E6B8E0FABA80B2
:1009FF0002800DBA8102802CBA8202803D020A8FDA
:100A0F00E5122512FA901BF8E493FB420290E7409F
:100A1F00EAF090E741E4F090E68AF090E68B7402FA
:100A2F00F0020FCA90E740E4F090E741F090E68AB9
:100A3F00F090E68B7402F0020FCA90E6BCE0FA5316
:100A4F00027E90E6BCE0FB7480B50300E4334A906D
:100A5F001BF993FA3395E0FB74A12AFA74E63BFB7A
:100A6F008A828B83E0FA53020190E740EAF090E725
:100A7F0041E4F090E68AF090E68B7402F0020FCA20
:100A8F0090E6A0E0FA4401F0020FCA90E6B8E0FA4F
:100A9F006008BA0202801C020FCA90E6BAE0FABAE6
:100AAF000106751200020FCA90E6A0E0FA4401F0A9
:100ABF00020FCA90E6BAE06003020B4990E6BCE071
:100ACF00FA53027E90E6BCE0FB7480B50300E4337A
:100ADF004A901BF993FA3395E0FB74A12AFA74E656
:100AEF003BFB90E6BCE0FC53047E90E6BCE0FD745B
:100AFF0080B50500E4334C901BF993FC3395E0FD72
:100B0F0074A12CFC74E63DFD8C828D83E0FC5304B4
:100B1F00FE8A828B83ECF090E6BCE05480C42354B1
:100B2F001FFA90E6BCE0FB740F5B90E6832AF0900F
:100B3F00E683E0FA4420F0020FCA90E6A0E0FA4400
:100B4F0001F0020FCA90E6B8E0FA6008BA0202801C
:100B5F0027020BE590E6BAE0FABA01067512010218
:100B6F000FCA90E6BAE0FABA0203020FCA90E6A0E3
:100B7F00E0FA4401F0020FCA90E6BCE0FA53027E9D
:100B8F0090E6BCE0FB7480B50300E4334A901BF998
:100B9F0093FA3395E0FB74A12AFA74E63BFB90E6D7
:100BAF00BCE0FC53047E90E6BCE0FD7480B505000C
:100BBF00E4334C901BF993FC3395E0FD74A12CFCAE
:100BCF0074E63DFD8C828D83E0FC4304018A828BA9
:100BDF0083ECF0020FCA90E6A0E0FA4401F0020F96
:100BEF00CA751501020FCA751500020FCA751601D5
:100BFF00020FCA751600020FCA751701020FCA75C8
:100C0F001700020FCA75190F751A04741AC0E07411
:100C1F0000C0E07440C0E0740FC0E07401C0E07524
:100C2F0082C0121488E58124FBF5817530007A00AB
:100C3F00E53020E1208A030ABB64005018C002741B
:100C4F000FC0E07401C0E07582C01214E915811560
:100C5F0081D00280DBE4F519F51A741AC0E0740034
:100C6F00C0E07440C0E0E4C0E07401C0E0758240B1
:100C7F00121488E58124FBF58175190F751A087414
:100C8F001AC0E07400C0E07440C0E0740FC0E0749C
:100C9F0001C0E07582C0121488E58124FBF5810044
:100CAF007530007A00E53020E0208A030ABB64002B
:100CBF005018C002740FC0E07401C0E07582C012FA
:100CCF0014E915811581D00280DB7530007A00E5BB
:100CDF003020E1208A030ABB64005018C002740F51
:100CEF00C0E07401C0E07582C01214E9158115814E
:100CFF00D00280DB751920751A19741AC0E07400C0
:100D0F00C0E07440C0E07420C0E07401C0E07582A0
:100D1F0040121488E58124FBF58175190F751A08A7
:100D2F00741AC0E07400C0E07440C0E0740FC0E0FB
:100D3F007401C0E07582C0121488E58124FBF5812F
:100D4F00020FCA43B0A00000000000000000000026
:100D5F000000000000001203F5000000000000007A
:100D6F0000000000000000000053B0DF0000000092
:100D7F00000000000000000000000000020FCA90F9
:100D8F00E6BCE0FA90E6BAE0FBC0028B8212174A8B
:100D9F001581020FCA90E6BCE0FA90E6BAE0FBC0FC
:100DAF00028B821219121581020FCA90E6BAE0F572
:100DBF001990E6BCE0FA8A1A741AC0E07400C0E019
:100DCF007440C0E0C0197401C0E07582C01214886D
:100DDF00E58124FBF581020FCA12163D7A00BA4055
:100DEF0000501800EA2440FBE434E7FCEA2430F812
:100DFF0086058B828C83EDF00A80E30090E68AE40F
:100E0F00F090E68B7440F0020FCA1218057A00BA00
:100E1F004000501800EA2440FBE434E7FCEA243099
:100E2F00F886058B828C83EDF00A80E30090E68ACA
:100E3F00E4F090E68B7440F0020FCAE4C0E0742037
:100E4F00C0E07582C01214E9158115817A00BA20AD
:100E5F0000502700EA2440FBE434E7FCEA2430F892
:100E6F0086058B828C83EDF00074202A2440F58256
:100E7F00E434E7F583E4F00A80D40090E68AE4F0E6
:100E8F0090E68B7440F0020FCA90E6BBE0F51B9022
:100E9F00E6BAE0F51C90E6BCE0F51D531D0790E6A1
:100EAF008AE4F090E68B7440F090E601E4F00000E5
:100EBF0000000000000075B25900000000000000A3
:100ECF000075800900000000000000007A007B0020
:100EDF00E511700EBB640050098A040ABCFFF10BC8
:100EEF0080EE7511001219CD020FCA90E6BBE0F526
:100EFF001B90E6BAE0F51C90E6BCE0F51D531D070C
:100F0F0090E601E4F0000000000000000075B25907
:100F1F0000000000000000007580090000000000C4
:100F2F00000000121AC890E68AE4F090E68B744035
:100F3F00F0020FCA90E6017403F0000000000000F9
:100F4F00000075B2880000000000000000758000EE
:100F5F000000000000000000806190E740E50DF008
:100F6F000090E7417401F00090E7427403F00090A5
:100F7F00E7437401F00090E744E4F00090E745E4A4
:100F8F00F00090E746E4F00090E747E4F00090E6C9
:100F9F008AE4F090E68B7408F0802075150053B04A
:100FAF007F000000000000000000000000000000B3
:100FBF0000800890E6A0E0FA4401F090E6A0E0443B
:100FCF0080F022E5106001225380F700000000003E
:100FDF0000000000000000000000004387012253C2
:100FEF00D8EF75100132C0E0C082C083C0025391A8
:100FFF00EF90E65DE0FA30E00C43080175110090C8
:10100F00E65D7401F090E65DE0FA30E13290E6843F
:10101F00E0F50E90E685E0F50FC28C758A00758CB1
:10102F0000D28C438080000000000000000053803D
:10103F007F000000000000000090E65D7402F09059
:10104F00E65DE0FA30E40690E65D7410F090E65D40
:10105F00E0FA30E30C43080275100090E65D740867
:10106F00F090E65FE0FA30E10975110190E65F74E8
:10107F0002F0D002D083D082D0E032C0E0C082C074
:10108F0083C0025391BF90E651E0FA30E016430857
:10109F000490E650E4F0000000000000000090E62D
:0D10AF00517401F0D002D083D082D0E03225
:0B1BF8000000010202030304040505C5
:0C00E000752900752A00752B00752C0096
:1010BC00752700752800752900D2E990E67AE0447E
:1010CC0002F022C01E85811EAA82E527600575826A
:1010DC0000802FE51E24FDF88622E51E24FAF886F2
:1010EC002308862408862575260075270375280095
:1010FC0090E678E0FB4480F0EA2AFA90E679F07505
:10110C008201D01E22C01E85811EAA82E5276005A1
:10111C007582008030E51E24FDF88622E51E24FA37
:10112C00F886230886240886257526007527017500
:10113C00280090E678E0FB4480F0EA2AFA90E67901
:10114C0004F0758201D01E22E527700BE528700390
:10115C00F582227582012275820222C01E85811EB3
:10116C00AA82E4B52A0280127401B52A028047745F
:10117C0002B52A030211F302122F7401B529067568
:10118C008200021232E51E24FBF8E6C0E008E6C03D
:10119C00E008E6C0E0C0027582511210CFAA82E5C9
:1011AC008124FCF581EA7005F58202123275290161
:1011BC00752A0102122F121154AA82BA02057582E5
:1011CC00008063E51E24FBF8E6C0E008E6C0E008FA
:1011DC00E6C0E0E4C0E07582511210CFE58124FC3A
:1011EC00F581752A02803C121154AA82BA02057547
:1011FC0082008032121154E5827009F52AF52975A6
:10120C0082018022E51E24FBF8E6C0E008E6C0E07F
:10121C0008E6C0E0E4C0E07582511210CFE58124ED
:10122C00FCF581758200D01E22C01E85811EAA820B
:10123C00E4B52B0280077401B52B4B80397401B5D2
:10124C0029057582008042E51E24FBF8E6C0E00803
:10125C00E6C0E008E6C0E0C002758251121111AA86
:10126C0082E58124FCF581EA7004F582801B7529E6
:10127C0001752B018010121154E5827009F52BF5C4
:10128C00297582018003758200D01E22AA82AB834D
:10129C00ACF0E4B52C02800A7401B52C0280380243
:1012AC0013177401B5290475820022742DC0E074E3
:1012BC0000C0E07440C0E07401C0E07582481211B7
:1012CC0011AD82E58124FCF581ED7003F582227568
:1012DC002901752C018034C002C003C004121154C2
:1012EC00AD82D004D003D0028D06BD0204758200FD
:1012FC0022752C00752900BE0102800B8A828B831B
:10130C008CF0E52D121BBF7582012275820022C064
:10131C00E0C0F0C082C083C002C003C004C005C0DE
:10132C00D075D0005391DFAA27BA041190E678E06B
:10133C00FB30E60302143175270002143190E67875
:10134C00E0FB30E20975270075280102143190E6A4
:10135C0078E0FB20E119BA03028003BA0111752869
:10136C000275270490E678E0FB4440F0021431BA91
:10137C000102800EBA02028035BA03030213FB028B
:10138C0014317527027401B5220890E678E0FA440E
:10139C0020F0E5262523FAE43524FBAC2590E679EC
:1013AC00E0FD8A828B838CF0121BBF021431AA22BF
:1013BC00BA020890E678E0FB4420F0EA14F522BA71
:1013CC00010B75270490E678E0FA4440F0AA23ABB1
:1013DC0024AC25E526FD04F526ED2AFAE43BFB902A
:1013EC00E679E0FD8A828B838CF0121BBF8036E598
:1013FC0022FA14F522EA700D75270490E678E0FACB
:10140C004440F08020AA23AB24AC25E526FD04F54E
:10141C0026ED2AFAE43BFB8A828B838CF0121BD8D4
:10142C00FA90E679F0D0D0D005D004D003D002D019
:10143C0083D082D0F0D0E032AA827B00BB0800506F
:10144C001AEB901C0393FC5A600543B008800353BD
:10145C00B0F743B00153B0FE0B80E1227A007B0061
:10146C00BB0800501243B001EA2AFAE5B030E4019F
:10147C000A53B0FE0B80E9008A2F0022C01E858122
:10148C001EAA82E51E24FDF8748046FBE51E24FC92
:10149C00F8E6420243B002008B82C002121444D020
:1014AC00028A821214447A00E51E24FDF8C3EA96DF
:1014BC005024E51E24F9F8EA26FBE40836FC0886DD
:1014CC00058B828C838DF0121BD8F582C00212140E
:1014DC0044D0020A80D253B0FD00D01E22C01E851B
:1014EC00811EAA82E51E24FDF886038B04E51E24CA
:1014FC00FCF8E6420243B002008C82C002C0031228
:10150C001444D003D0028A82C003121444D0035373
:10151C00B0FD000043B0040043B0010053B0FE0026
:10152C00007A00EAB503005014C002C0031214681C
:10153C00D003D002EA2430F8A62F0A80E653B0FB81
:10154C0000D01E22009000007401F07400C0E07402
:10155C0000C0E0E4C0E0E4C0E07401C0E07582C00B
:10156C00121488E58124FBF581002200900000E430
:10157C00F07400C0E07400C0E0E4C0E0E4C0E074CB
:10158C0001C0E07582C0121488E58124FBF581004E
:10159C0022009000007408F07400C0E07400C0E0F9
:1015AC00E4C0E07401C0E07401C0E07582C01214A4
:1015BC0088E58124FBF5810022009000007480F006
:1015CC007400C0E07400C0E0E4C0E07401C0E074DA
:1015DC0001C0E07582C0121488E58124FBF58100FE
:1015EC0022009000007404F07400C0E07400C0E0AD
:1015FC00E4C0E07401C0E07401C0E07582C0121454
:10160C0088E58124FBF5810022009000007440F0F5
:10161C007400C0E07400C0E0E4C0E07401C0E07489
:10162C0001C0E07582C0121488E58124FBF58100AD
:10163C0022C01E85811E0581A81E08760488027BA7
:10164C00007C40C000C002C003C004740FC0E07432
:10165C0001C0E07582C0121488E58124FBF581D0AD
:10166C00007530007A00E53020E1248A030ABB645F
:10167C0000501CC002C000740FC0E07401C0E075C3
:10168C0082C01214E915811581D000D00280D7BA1E
:10169C006400400F7530007531007532AA7533AA9D
:1016AC00021744760088027B007C40C000C002C058
:1016BC0003C004E4C0E07401C0E0758240121488D9
:1016CC00E58124FBF581D000760888027B007C4004
:1016DC00C002C003C004740FC0E07401C0E0758286
:1016EC00C0121488E58124FBF5817530007A00E581
:1016FC003020E0208A030ABB64005018C002740F2B
:10170C00C0E07401C0E07582C01214E91581158126
:10171C00D00280DBBA6400400E7530007531007564
:10172C0032BB7533BB8011E4C0E07440C0E07582FD
:10173C00401214E915811581851E81D01E22C01E10
:10174C0085811E0581AA82A81E08E51E24FDF9E7E5
:10175C00F67530007B00E53020E1288B040BBC646F
:10176C00005020C002C003C000740FC0E07401C060
:10177C00E07582C01214E915811581D000D003D018
:10178C000280D3C002C003C000E4C0E07401C0E01A
:10179C007582401214E915811581D000D003D00256
:1017AC00BB6400504EE530FB6049BBFF02804488AF
:1017BC00037C007D40C000C003C004C005C002749F
:1017CC0001C0E0758240121488E58124FBF581D0BC
:1017DC0000760888027B007C40C002C003C0047401
:1017EC000FC0E07401C0E07582C0121488E581243A
:1017FC00FBF581851E81D01E22C01E85811E0581B0
:10180C00A81E08764088027B007C40C000C002C045
:10181C0003C004740FC0E07401C0E07582C01214E0
:10182C0088E58124FBF581D0007530007A00E53025
:10183C0020E5248A030ABB6400501CC002C000745B
:10184C000FC0E07401C0E07582C01214E915811557
:10185C0081D000D00280D7BA6400400F753000757B
:10186C00310075320075330002190C76FF88027B4B
:10187C00007C40C000C002C003C004E4C0E074019E
:10188C00C0E0758280121488E58124FBF581D000BC
:10189C00768088027B007C40C002C003C004740FB9
:1018AC00C0E07401C0E07582C0121488E58124FB8D
:1018BC00F5817530007A00E53020E4208A030ABBFC
:1018CC0064005018C002740FC0E07401C0E075824F
:1018DC00C01214E915811581D00280DBBA64004076
:1018EC000E7530007531007532007533008011E4CF
:1018FC00C0E07440C0E07582801214E91581158136
:10190C00851E81D01E22C01E85811E0581AA82A83B
:10191C001E08E51E24FDF9E7F67530007B00E53066
:10192C0020E5288B040BBC64005020C002C003C00F
:10193C0000740FC0E07401C0E07582C01214E91588
:10194C00811581D000D003D00280D3C002C003C067
:10195C0000E4C0E07401C0E07582801214E91581C6
:10196C001581D000D003D002BB6400504EE530FB93
:10197C006049BBFF02804488037C007D40C000C0EE
:10198C0003C004C005C0027401C0E075828012144B
:10199C0088E58124FBF581D000768088027B007C71
:1019AC0040C002C003C004740FC0E07401C0E075F5
:1019BC0082C0121488E58124FBF581851E81D01E1E
:0119CC0022F8
:081C03008040201008040201DA
:1019CD005380EF00000000000000005380FE000077
:1019DD00000000000000758284121B4B75820012FE
:1019ED001B4BE51D0303543FF582121B4BE51D03F5
:1019FD000354C0F582121B4B7404B51D047A088084
:101A0D00027A407B00EBB50200501BEB2440F582BF
:101A1D00E434E7F583E0F582C002C003121B4BD01E
:101A2D0003D0020B80DF43800100000000000000A6
:101A3D00007404B51D028001225380FE00000000D9
:101A4D0000000000758283121B4BE51B251BFAE578
:101A5D001C2354014AF582121B4BE51C251CF582F3
:101A6D00121B4B758200121B4B0000000000000082
:101A7D000043800100000000000000005380FE00C4
:101A8D00000000000000007582D7121B4B7A007B0E
:101A9D0000C002C003121B7DE582D003D00220E7F7
:101AAD000EBB640050098A040ABCFFE50B80E243BB
:101ABD0080010000000000000000225380EF0000B4
:101ACD000000000000005380FE0000000000000038
:101ADD000075820B121B4BE51B251BFAE51C2354CD
:101AED00014AF582121B4BE51C251CFAE51D03036B
:101AFD00543F4AF582121B4BE51D030354C0F5827A
:101B0D00121B4B758200121B4B7A00BA40005022FB
:101B1D00EA2440FBE434E7FCC002C003C004121BFE
:101B2D007DAD82D004D003D0028B828C83EDF00A80
:101B3D0080D9438001000000000000000022AA822D
:101B4D007B00BB08005028EA30E705438040800346
:101B5D005380BFEA2AFA4380100000000000000005
:101B6D00005380EF00000000000000000B80D32226
:101B7D007A007B00BB08005025EA2AFAE580FC308C
:101B8D00E503430201438010000000000000000047
:101B9D005380EF00000000000000000B80D68A8209
:011BAD002215
:103E000012010002000000403921040101000102FA
:103E100000010A060002000000400100090235000E
:103E200001010080320904000005FF0000000705C1
:103E300001020002010705820100020107050402D8
:103E400000020107050601000204070588010002BF
:103E5000010902350001010080320904000005FF5C
:103E600000000007050102000201070582010002AF
:103E7000010705040200020107050601000201070F
:103E800005880200020104030904140365006900A7
:103E9000670065006E006C0061006200730018032B
:103EA00042006100730065002000530074006E0042
:083EB0002D004D004D00000043
:101BAE007400F58690FED37C05A3E582458370F91B
:011BBE002204
:06008A00E478FFF6D8FD4A
:100068007900E94400601B7A00901C0B780175A0A8
:1000780000E493F2A308B8000205A0D9F4DAF275F7
:02008800A0FFD7
:101BBF0020F71030F6118883A88220F507F6A88346
:091BCF0075830022F280F7F02278
:100090007800E84400600A790075A000E4F309D80C
:1000A000FC7801E84400600C7901900000E4F0A3C2
:0400B000D8FCD9FAA5
:0D005B0075816F121BF4E5826003020056F0
:101BD80020F71430F6148883A88220F507E6A88336
:101BE80075830022E280F7E49322E02275820022C6
:00000001FF
