:0400000002005B326D
:01000B0032C2
:0100130032BA
:01001B0032B2
:0100230032AA
:03002B00020AF7CF
:0300330002124274
:01003B003292
:030043000212871F
:03004B000217BFDA
:0300530002139DF8
:0700B40075080075090075D5
:0600BB000A00750C0F7530
:0700C1000D00750E00E4F5CF
:0400C8000FF51075AB
:0600CC0011007512007521
:0600D20013007514007517
:0600D8001503751600750A
:0200DE00170009
:030129000200567B
:0500560012012C80FEE8
:0A012C00C01FE581F51F2434F581A2
:0A013600E51F242EF8E4F608F6E5B4
:0A0140001F2430F87600E51F24317B
:0E014A00F8760090E600E0FD54E7F00000902B
:0E015800E60174EBF00000C0001213F3D000BB
:0E01660090E670E4F0000075B20800007580AD
:0E01740000000075B5FF000075B000000053DC
:0E0182008EDF75CA1775CBFC75C80443A82024
:0E01900090E6827404F0D2E843D820C000123A
:0E019E001466D00090E668E0FD4402F0000018
:0D01AC00D2EA000090E65C741BF0000090A9
:0E01B900E65EE0FD4402F00000D2AF0000530D
:0A01C7008EF8A91F097700A91F098F
:0C01D1000977017F00E51F2432F9770058
:0A01DD00E51F2406F9E4F709F7E531
:0A01E7001F242AF97701E51F242BDD
:0B01F100F97701E51F242CF97700E5E9
:0A01FC001F242DF97700E51F2408E9
:0C020600F9C000A81F0808087600D0000E
:0C021200C000E51F242AF8B60102800598
:05021E00D00002051DE7
:0A022300E51F242BF8B60102800449
:04022D00D000804A33
:0C023100D000C007C000A81F080808E6A5
:0C023D0075F020A4FFAAF0E51F2433F8A0
:0C02490074802FF6E43A08F6E51F243319
:0C025500F8088602A702E904FAE51F245D
:0C02610033F88607A802A607E51F242B2F
:0C026D00F87600E51F242CF87601D00084
:02027900D007AC
:0C027B00C000E51F242CF8B6010280052D
:05028700D00002035647
:0E028C00D000C00789027F007B40C007C00081
:0E029A00C001C002C007C00375820212151514
:0E02A800AA82158115811581D001D000D007E2
:0502B600E4BA0101049F
:0C02BB00D007601DC000E51F242CF87661
:0A02C70000E51F242DF87601E51F65
:0B02D1002406F8E4F608F6D000807A5E
:0C02DC00C000E51F2406F8860208860317
:0B02E800E51F2406F806B60002080619
:0E02F300D000C374E89A74039B5058C000E515
:0A0301001F242AF87600E51F2433BC
:0B030B00F8E4F608F6D0007A007B0052
:0E03160074EE2B402DC00774802AFFE43BFDDF
:0A032400EF252AF582ED352BF58355
:08032E0074E2F00ABA00010BB1
:0C033600C000E51F2433F8A60208A6034F
:06034200D000D00780CEC0
:0C034800C000E51F2433F8A60208A6033D
:02035400D000D7
:0C035600C000E51F242DF8B60102800550
:05036200D000020212B0
:0A036700E51F2433F8E6252AFA0802
:0C037100E6352BFBD0007D00C007C0006B
:0E037D00C001C002C003C0057582201215E346
:0E038B00AA82158115811581D001D000D007FE
:05039900BA010280031F
:03039E000204AFA7
:0A03A100C000E51F242DF87600E5EA
:0A03AB001F242BF87601E51F24063D
:0C03B500F8E4F608F6A81F080808B69047
:0103C100003B
:0C03C200D000500DC000A81F080808065D
:0503CE00D00002021244
:0C03D300C000E51F242AF8E4F6FAFBE560
:0C03DF001F2433F8E4F608F6D0007D007F
:0203EB007C0094
:0E03ED0074EE2C4033C00774802DFEE43CFFFC
:0A03FB00EE252AF582EF352BF5837D
:0E040500E0FE7F002AFAEF3BFB0DBD00010C6C
:0C041300C000E51F2433F8A60508A6046D
:06041F00D000D00780C8E8
:0C042500C000E51F2433F8A60508A6045B
:0B043100D0007480252AF5827412357B
:0C043C002BF583E0FC8B05B505277481CF
:0A044800252AF5827412352BF58386
:0C045200E0FC7B00B502147482252AF542
:0C045E00827412352BF583E0FABA3A03E1
:03046A0002021279
:0C046D00C000E51F2433F8E4F608F6D0C8
:05047900007A007B0089
:08047E0074EE2B500302021280
:0C04860074802AFCE43BFDEC252AF58282
:0C049200ED352BF58374E1F00ABA00018F
:01049E000B52
:0C049F00C000E51F2433F8A60208A603E5
:0404AB00D00080CF2E
:0C04AF00C000E51F2406F8860208860342
:0B04BB00E51F2406F806B60002080644
:0E04C600D000C374E89A74039B400302021234
:0A04D400C000E51F242AF87600E5B9
:0C04DE001F2433F8E4F608F6D0007A0082
:0204EA007B0095
:0804EC0074EE2B500302021212
:0C04F40074802AFCE43BFDEC252AF58214
:0C050000ED352BF58374E2F00ABA00011F
:01050C000BE3
:0C050D00C000E51F2433F8A60208A60376
:04051900D00080CFBF
:0A051D00C000A81F080808E4F6F566
:0405270040F541E575
:0A052B001F242BF87601E51F242D94
:0E053500F87600D000C007C000C001120B5BBA
:09054300D001D000D007751401AD
:07054C007401B509028003F0
:0305530002069FFE
:0A0556007401B51470E513706CE534
:0C05600012702F8803FC7D40C007C00013
:0E056C00C001C003C004C0057401C0E0758268
:0E057A00411216C9AB82E58124FCF581D00147
:0A058800D000D007BB01037512017B
:0A059200E51370357401B51230C096
:0A059C0007C000C0017415C0E07430
:0C05A60000C0E07440C0E07402C0E075CA
:0E05B20082181216C9AB82E58124FCF581D0B7
:0B05C00001D000D007BB010375130140
:0905CB007509007401B51123ABA0
:0405D4000FAC100553
:0605D8000FE4B50F02055F
:0105DE00100C
:0E05DF007D007E00BB6010BCEA0DBD000ABEB0
:0805ED000007E4F50FF510F51D
:0105F50011F4
:0C05F600C000E51F242EF88603088604D0
:0B060200E51F242EF806B600020806D3
:0C060D00D000BBE813BC0310C000E51FC8
:0C061900242EF8E4F608F6D000430A0195
:0C062500E50A30E01D90000D75F040C0AB
:0E06310007C000C001121646AB82D001D000F7
:08063F00D007BB0103530AFEC2
:0A0647007401B51353C000E51F2431
:0C06510030F88603E51F2430F806D000C6
:0C065D00BB0A0EC000E51F2430F8760038
:05066900D000430A026D
:0C066E00E50A30E12C90000E75F040C051
:0E067A0007C000C00112173CAB82D001D000B7
:0E068800D007BB0112C007C000C001121B3C0E
:09069600D001D000D007530AFD89
:07069F00E4B50803020A4D57
:0A06A600E50830E01853A87F530860
:0E06B000FE43A880C007C000C001120C91D00C
:0506BE0001D000D0078F
:0A06C300E50830E11853A87F530842
:0E06CD00FD43A880C007C000C001121181D0FB
:0506DB0001D000D00772
:0A06E000E50830E21B53A87F530821
:0E06EA00FB43A880C007C000C001120BB4D0B3
:0806F80001D000D00775800855
:08070000E50820E303020830C4
:0C070800C000E51F242BF8B6010280059C
:05071400D0000207BF48
:0C071900A81F080808E675F020A4FBAC3F
:0C072500F0E51F2433F874802BF6E43C50
:0C07310008F6E51F2433F8088605A7052C
:0C073D00E904FDE51F2433F88606A8053A
:0C074900A60674802BFBE43CFCE51F249A
:0807550004F8E4F608F6D000F8
:0C075D00C000E51F2404F8C3E694200847
:0C076900E69400D000503DC007C000E541
:0C0775001F2404F886070F0FEF29FFE592
:0C0781001F2404F8E62BFA08E63CFDEA11
:0A078D00252AF582ED352BF583E0F7
:0C079700FAA807A602E51F2404F806B625
:0407A3000002080642
:0607A700D000D00780B075
:0A07AD00C000E51F242BF87600E5DC
:0807B7001F242DF87601D0008B
:0C07BF00C000E51F242DF8B601028004E4
:0407CB00D000806179
:0E07CF00D00089027B007C40C007C000C00142
:0E07DD00C002C003C004758222121515AA8244
:0E07EB00158115811581D001D000D007BA010B
:0B07F90036C000E51F242DF87600E557
:0A0804001F242BF87601A81F080836
:04080E0008B6900098
:0C081200D000500CC000A81F0808080609
:04081E00D000800E78
:0A0822005308F7C000A81F080808DB
:04082C007600D00082
:08083000E50820E4030209477A
:0C083800C000E51F242BF8B6010280046C
:04084400D0008069F7
:0C084800A81F080808E675F020A4FAAB11
:0C085400F0E51F2433F874802AF6E43B22
:0C08600008F6E51F2433F8088602A70202
:0C086C00E904FAE51F2433F88603A80213
:08087800A603D0007A007B000A
:0E088000C3EA9420EB940050168A040C0CEC92
:0E088E0029FCC000A80476FFD0000ABA00E4DE
:03089C000B80E1ED
:0A089F00C000E51F242BF87600E5E9
:0808A9001F242DF87601D00098
:0C08B100C000E51F242DF8B601028005F0
:0508BD00D00002094714
:0E08C200D00089027B007C40C007C000C0014E
:0E08D000C002C003C004758222121515AA8250
:0E08DE00158115811581D001D000D007BA0117
:0B08EC005AC000E51F242DF87600E53F
:0A08F7001F242BF87601A81F080843
:0409010008B69000A4
:0C090500D000500CC000A81F0808080615
:04091100D000803260
:0A0915005308EFC000A81F080808EF
:08091F007600D0007A007B0095
:0E09270074EE2B401B74802AFCE43BFDEC2593
:0A0935002AF582ED352BF58374FFDF
:08093F00F00ABA00E30B80E0AE
:0C094700E50830E730C007C000C00174B4
:0A09530028C0E07400C0E07440C04A
:0E095D00E07402C0E07582181216C9AA82E585
:0E096B008124FCF581D001D000D007BA010331
:0309790053087FA1
:0B097C00E50830E65E900000E4F0901B
:060987000001F0751800EC
:0A098D0074F82518401474022518B0
:0A0997002400F582E43400F58374B7
:0609A100FFF0051880E6DE
:0B09A700C007C000C0017400C0E07475
:0C09B20000C0E0E4C0E075820A121515D8
:0E09BE00AA82158115811581D001D000D007C5
:0A09CC00BA010D7401B51708751784
:0609D600005308BF80037E
:0309DC007517018B
:0B09DF00E50830E569900000E4F090AE
:0A09EA000001F090000274C0F090CC
:0C09F40000037439F09000047421F090AE
:0B0A000000057401F0900006E4F09087
:080A0B000007F0900008F090D4
:0C0A13000009F0C007C000C0017400C062
:0C0A1F00E07400C0E0E4C0E075820A1240
:0E0A2B001515AA82158115811581D001D00004
:0A0A3900D007BA010CE5177008752C
:070A430017015308DF8003D7
:030A4A007517001D
:0E0A4D0053A87F8FB043B08053B07FC000E548
:0C0A5B001F2432F886B0D00043B0805356
:0E0A6700B07F00000000000000000000000052
:0A0A7500C000A81F08B605028004A7
:040A7F00D000800F14
:0A0A8300A81F087600A81F080876D7
:050A8D0001D000801003
:0A0A9200C000A81F0806A81F0808EE
:060A9C00E625E0F6D000A3
:0A0AA200C000A81F08E62419F8861A
:0A0AAC0002E51F2432F8A602A81F7D
:0E0AB6000808748026FFD00075B0C043B080E1
:0E0AC40053B07F43A880000000000000000037
:0E0AD200000000000000000000000000000016
:0E0AE000000000000000000000000000000008
:070AEE0002054C851F81D0B9
:020AF5001F22BE
:070AF70075090153C87F32AD
:0700E0007521007522007577
:0600E700230175240075E1
:0600ED00250075280175D5
:0400F30029FF752A42
:0300F70000752B66
:0500FA0028752C0075C3
:0600FF002D00E4F540F5C0
:0401050041754200FE
:0A0AFE0090E6BAE0F52675820122A9
:0C0B080090E740E526F090E68AE4F090CB
:090B1400E68B7401F075820122E8
:0A0B1D0090E6BAE0F5277582012288
:0C0B270090E740E527F090E68AE4F090AB
:090B3300E68B7401F075820122C9
:040B3C00AA82AB835B
:090B40008A048B051ABAFF011B9F
:0E0B4900EC4D600DC002C003121B78D003D02B
:030B57000280E633
:010B5A002278
:0E0B5B0090E680E0440AF09005DC120B3C901E
:0E0B6900E65D74FFF05391EF90E680E054F7E4
:020B7700F0226A
:060B7900AA827B2C7C3FE8
:0E0B7F008B828C83A3E0FDBD03278A051AED4F
:070B8D0070058B828C8322AE
:0E0B9400C0028B058C068B828C83E0FF7A00FA
:0E0BA200EF2DFDEA3EFE8D038E04D00280CFC3
:040BB000900000228F
:0B0BB4005380F7900032120B3C7A00D7
:030BBF00BA120067
:0B0BC2005009EA242EF876000A80F2A9
:070BCD00752C00E4F52DF585
:040BD40040F541F5B2
:0C0BD8004290E60B7403F0000090E6125F
:0E0BE40074D0F0000090E613E0FA547FF000A9
:0E0BF2000090E614E0FA547FF0000090E61543
:0E0C0000E0FA547FF0000090E6047480F000EB
:0E0C0E000090E6047402F0000090E604740406
:0E0C1C00F0000090E6047406F0000090E6047C
:0D0C2A007408F0000090E604E4F000009073
:0E0C3700E618740CF0000090E6207401F00046
:0E0C45000090E6217480F0000090E63074C04C
:0E0C5300F0000090E63174C0F0000090E61949
:0E0C6100E0FA54FEF0000090E61AE0FA54FEAD
:0E0C6F00F0000090E61BE0FA54FEF00000904A
:0E0C7D000032120B3C90E65174FFF090E650EE
:060C8B007405F00214667E
:0A0C9100C01F85811F0581058190B9
:0A0C9B00E6B9E0FABA0003020DAC5E
:060CA500BA0103020E4D2E
:060CAB00BA0303020F056D
:050CB100BA0602805D9F
:060CB600BA0803020DA6BE
:060CBC00BA0903020DA0BD
:060CC200BA0A03020D94C2
:060CC800BA0B03020D9AB5
:060CCE00BAB003020F9F03
:060CD400BAB103020FC2D9
:060CDA00BAB203020FB5DF
:060CE000BAB50302101377
:060CE600BAB6030210671C
:060CEC00BAB7030210D3A9
:060CF200BAB8030211581C
:060CF800BABB03020FD796
:060CFE00BAC003020FDD85
:060D0400BAD103021167E1
:060D0A00BAD203021162DF
:030D100002116C61
:0A0D130090E6BBE0FABA0102800A84
:050D1D00BA0202801C77
:050D2200BA0364802EFD
:0A0D27007A007B3F90E6B3EBF07A10
:0A0D3100007B3F7B0090E6B4EAF07F
:030D3B000211742E
:0A0D3E007A127B3F90E6B3EBF07AE7
:0A0D4800127B3F7B0090E6B4EAF056
:030D520002117417
:0E0D550090E6BAE0F582120B79AA82AB837C9D
:0D0D6300008A058B068C07EA4B4C600F9050
:0E0D7000E6B3EEF07E0090E6B4EDF0021174F2
:0B0D7E0090E6A0E0FA4401F0021174BE
:0B0D890090E6A0E0FA4401F0021174B3
:060D9400120B270211748E
:060D9A00120B1D02117492
:060DA000120AFE021174AC
:060DA600120B080211749B
:0A0DAC0090E6B8E0FABA8002800D6C
:050DB600BA8102802C4F
:050DBB00BA8202803D38
:030DC000020E42DE
:060DC300E5252525FA904C
:0D0DC9001BC2E493FB420290E740EAF09069
:0E0DD600E741E4F090E68AF090E68B7402F0BC
:030DE40002117485
:0E0DE70090E740E4F090E741F090E68AF0904B
:080DF500E68B7402F002117498
:0E0DFD0090E6BCE0FA53027E90E6BCE0FBC339
:0E0E0B0074809BE4334A901BC393FA3395E046
:0E0E1900FB74A12AFA74E63BFB8A828B83E00D
:0E0E2700FA53020190E740EAF090E741E4F050
:0D0E350090E68AF090E68B7402F0021174D2
:0B0E420090E6A0E0FA4401F0021174F9
:0C0E4D0090E6B8E0FA6008BA0202801CCF
:030E59000211740F
:0C0E5C0090E6BAE0FABA01067525000223
:020E6800117403
:0B0E6A0090E6A0E0FA4401F0021174D1
:090E750090E6BAE06003020EFAF7
:0E0E7E0090E6BCE0FA53027E90E6BCE0FBC3B7
:0E0E8C0074809BE4334A901BC393FA3395E0C5
:0E0E9A00FB74A12AFA74E63BFB90E6BCE0FC78
:0E0EA80053047E90E6BCE0FDC374809DE433ED
:0E0EB6004C901BC393FC3395E0FD74A12CFC03
:0E0EC40074E63DFD8C828D83E0FC5304FE8AB3
:0E0ED200828B83ECF090E6BCE05480C4235485
:0E0EE0001FFA90E6BCE0FB740F5B90E6832ADD
:0C0EEE00F090E683E0FA4420F00211745A
:0B0EFA0090E6A0E0FA4401F002117441
:0C0F050090E6B8E0FA6008BA020280270B
:030F1100020F9438
:0C0F140090E6BAE0FABA01067525010269
:020F200011744A
:0B0F220090E6BAE0FABA020302117474
:0B0F2D0090E6A0E0FA4401F00211740D
:0E0F380090E6BCE0FA53027E90E6BCE0FBC3FC
:0E0F460074809BE4334A901BC393FA3395E00A
:0E0F5400FB74A12AFA74E63BFB90E6BCE0FCBD
:0E0F620053047E90E6BCE0FDC374809DE43332
:0E0F70004C901BC393FC3395E0FD74A12CFC48
:0E0F7E0074E63DFD8C828D83E0FC4304018A05
:080F8C00828B83ECF00211746A
:0B0F940090E6A0E0FA4401F0021174A6
:0E0F9F0090E6BAE0FA90E6BCE0FBC0028B825E
:080FAD001214041581021174F5
:0A0FB50090E6BAE0FA8A29430880AA
:030FBF00021174A8
:0A0FC200120BB4758008751101755B
:060FCC0028017529FF4316
:050FD20008800211740B
:060FD7005380F7021174C3
:090FDD00E4F50FF51090E740E582
:0C0FE6000DF090E741E4F090000CE0FA00
:0D0FF20090E742F090E743E4F090E744E51B
:0C0FFF0017F090E745E4F090E68AF090CF
:08100B00E68B7406F00211747B
:0810130090E6BCE0FABA1200FD
:0A101B00503F90E6BAE0FABA040074
:0C102500503590E6BCE0F52C90E6BAE0F7
:05103100F52DE52C2463
:0A1036002EF88602852DF005F074F7
:031040000180022A
:0210430025E0A6
:0C104500D5F0FBFB4AF675420190E68AEC
:0B105100E4F090E68B7440F002117494
:0B105C0090E6A0E0FA4401F0021174DD
:061067007A007B007C0012
:0C106D00C3EB9412EC94005014EB242E02
:08107900F88605BD0F0280029C
:021081007A01F2
:071083000BBB00E60C80E34B
:0C108A00EA703B7480252AF58274123550
:091096002BF583E541F07481257E
:0A109F002AF5827412352BF583AA9E
:0A10A900407B00EAF07482252AF56E
:0C10B300827412352BF583743AF0E4F5DA
:0410BF0040F5414374
:0510C300080802117491
:0B10C80090E6A0E0FA4401F002117471
:0810D30090E6BCE0FABA12003D
:0A10DB00507190E6BAE0FABA040082
:0E10E500506790E6BAE075F040A4FAABF090C8
:0D10F300E6BCE0FC8C05E42AFAED3BFBA80E
:0C1100001F0874802AF6E43B08F67C000F
:02110C007D0064
:0E110E00C3EC9440ED9400502AEC2440FEED1A
:0C111C0034E7FFA81F08EC26FAED0836A7
:0A112800FBEA252AF582EB352BF5D2
:0E11320083E0FA8E828F83F00CBC00D00D801B
:01114000CDE1
:0D11410090E68AE4F090E68B7440F0802682
:0A114E0090E6A0E0FA4401F0801CD6
:07115800430810E4F540F527
:03115F00418012BA
:05116200430840800D70
:05116700430820800890
:08116C0090E6A0E0FA4401F056
:0B11740090E6A0E04480F0851F81D0D1
:02117F001F222D
:08118100E58020E30302123BAC
:021189007A00EA
:03118B00BA0300A4
:05118E00400302123BCA
:041193007B007C0061
:0C119700C3EB94DCEC9405506FE5236082
:0211A300012227
:0211A5007D00CB
:0311A700BD060082
:0A11AA00505C8DF005F07401800226
:0211B40025E034
:0E11B600D5F0FB2480F5B043B08053B07F75B8
:0E11C400B0D543B08053B07F000000000000A3
:0E11D20000000000000000000000000000000F
:0E11E0000000000075B0C043B08053B07F0027
:0E11EE000000000000000000000000000000F3
:0C11FC000000000000000000000D809FBB
:071208000BBB008B0C80887A
:04120F007B007C00E4
:0E121300C3EB942CEC9401501BC002C003C02E
:0C12210004121B78D004D003D002E52397
:03122D006001223B
:071230000BBB00DF0C80DCAA
:041237000A02118B0B
:07123B005380F743870122F5
:0C124200C020C0E0C0F0C082C083C00229
:0E124E00C003C004C005C006C007C000C00138
:0C125C00C0D075D00053D8EF75230112EC
:0E12680013F3D0D0D001D000D007D006D005AF
:0E127600D004D003D002D083D082D0F0D0E0DC
:03128400D0203245
:0E128700C0E0C0F0C082C083C002C003C0043B
:0E129500C005C006C007C0D075D0005391EF51
:0C12A30090E65DE0FA30E009430801909D
:0512AF00E65D7401F092
:0D12B40090E65DE0FA30E11C90E684E0F584
:0A12C1002190E685E0F522C28C754D
:0D12CB008A00758C00D28C90E65D7402F0F4
:0E12D80090E65DE0FA30E40690E65D7410F0FA
:0C12E60090E65DE0FA30E30C430802756E
:0812F200230090E65D7408F092
:0B12FA0090E65FE0FA20E1030213869B
:071305007401B542028003F0
:03130C0002138049
:0A130F00754200E52D75F040A4FAC8
:0C131900ABF0AC2C8C057C00EC2AFAED4B
:0D1325003BFB74802AFAE43BFB7C007D005A
:0E133200C3EC9440ED94005045EC2AFEED3BD8
:0A134000FFEE252AFEEF352BFFEC2F
:0E134A002440F582ED34E7F583C002C003E0D5
:0E1358008E828F83F0EC2440F582ED34E7F5B1
:0A13660083E0FA7B00EA2540F54021
:0A137000EB3541F5410CBC00010D06
:06137A00D003D00280B296
:0613800090E65F7402F02C
:0E138600D0D0D007D006D005D004D003D002BE
:09139400D083D082D0F0D0E03209
:0E139D00C0E0C082C083C0025391BF90E651F1
:0C13AB00E0FA30E00E43080490E650E445
:0713B700F090E6517401F013
:0C13BE0090E651E0FA30E22490F080E567
:0913CA0021F090F081E522F09081
:0E13D300F08CE58CF090F08DE58AF090F074CF
:0913E100E57AF090E6517404F085
:0913EA00D002D083D082D0E032A1
:011BC2000022
:0A1BC30000010202030304040505FB
:011BCD000611
:0213F3007A007E
:0313F500BA060035
:0B13F8005009EA2419F876C00A80F2C0
:0114030022C6
:0A140400C01F85811FAA8275F00346
:0E140E00EA84FB75F003A4FCEAC39C75F002AF
:0C141C00A4FA8AF005F07A017C0080063A
:06142800EA2AFAEC33FC95
:0C142E00D5F0F7EA2AFCEB2419F886033D
:0C143A00EAF45203A603ECF4FD5BF6A9F3
:0C1446001F191919E7540C60058603EC0F
:021452004BF657
:0C145400A91F191919E754306005860320
:03146000EA4BF65E
:03146300D01F2275
:07010900754A00754B0075FB
:060110004C00754D007566
:050116004F00755000D0
:07146600754800754900758F
:0C146D004A00D2E990E67AE04402F02246
:09147900C01F85811FAA82E4B5A1
:041482004802800597
:05148600758200802FBB
:08148B00A81F1818188643E59C
:081493001F24FAF886440886C4
:05149B004508864675BE
:0614A000470075480375CA
:0C14A600490090E678E0FB4480F0EA2A60
:0814B200FA90E679F075820161
:0314BA00D01F221E
:0914BD00C01F85811FAA82E4B55D
:0414C6004802800553
:0514CA00758200803076
:0814CF00A81F1818188643E558
:0814D7001F24FAF88644088680
:0514DF0045088646757A
:0614E40047007548017588
:0C14EA00490090E678E0FB4480F0EA2A1C
:0914F600FA90E67904F075820118
:0314FF00D01F22D9
:0A150200E548700BE5497003F5821F
:01150C0022BC
:04150D0075820122C0
:0415110075820222BB
:09151500C01F85811FAA82E4B504
:04151E004B028012EA
:071522007401B54B02804784
:081529007402B54B030215A189
:031531000215DDC3
:0B1534007401B54A067582000215E044
:0C153F00E51F24FBF8E6C0E008E6C0E071
:0E154B0008E6C0E0C002758251121479AA822F
:0E155900E58124FCF581EA7005F5820215E0BB
:07156700754A01754B0102FA
:02156E0015DD89
:0D157000121502AA82BA020575820080637E
:0C157D00E51F24FBF8E6C0E008E6C0E033
:0E15890008E6C0E0E4C0E0758251121479E576
:0A1597008124FCF581754B02803CB5
:0D15A100121502AA82BA020575820080327E
:0A15AE00121502E5827009F54BF5F5
:0615B8004A758201802249
:0C15BE00E51F24FBF8E6C0E008E6C0E0F2
:0E15CA0008E6C0E0E4C0E0758251121479E535
:0515D8008124FCF581F7
:0315DD0075820014
:0315E000D01F22F7
:0915E300C01F85811FAA82E4B536
:0415EC004C02800726
:0715F0007401B54C4B80397A
:0A15F7007401B54A057582008042B8
:0C160100E51F24FBF8E6C0E008E6C0E0AE
:0E160D0008E6C0E0C0027582511214BDAA8228
:0D161B00E58124FCF581EA7004F582801B56
:08162800754A01754C018010A8
:0A163000121502E5827009F54CF571
:06163A004A7582018003E5
:03164000758200B0
:03164300D01F2293
:0C164600AA82AB83ACF0E4B54D02800A30
:071652007401B54D02803860
:031659000216C5B1
:09165C007401B54A0475820022F4
:0A166500744EC0E07400C0E0744051
:0E166F00C0E07401C0E07582481214BDAD8267
:0C167D00E58124FCF581ED7003F582226C
:08168900754A01754D01803422
:0E169100C002C003C004121502AD82D004D006
:0C169F0003D0028D06BD020475820022FB
:0A16AB00754D00754A00BE01028073
:0116B5000B29
:0B16B6008A828B838CF0E54E121B89AA
:0416C100758201220B
:0416C5007582002208
:0916C900C01F85811FAA82E4B54F
:0416D2004F0280073C
:0716D6007401B54F5B803E7B
:0A16DD007401B54A057582008052C1
:0C16E700E51F24FAF8E6C0E008E6C0E0C9
:0C16F30008E6C0E0A81F181818E6C0E0C8
:0E16FF008A82121479AA82E58124FCF581EA20
:06170D007004F582802645
:08171300754A01754F01801BAE
:0C171B00121502AA82BA0208754F01756F
:041727008200800EAE
:0A172B00754F00754A0075820180B9
:0117350003B0
:03173600758200B9
:03173900D01F229C
:0C173C00AA82AB83ACF0E4B55002800A36
:071748007401B55002803866
:03174F000217BBC3
:091752007401B54A0475820022FD
:0A175B007451C0E07400C0E0744057
:0E176500C0E07401C0E07582411214BDAD8277
:0C177300E58124FCF581ED7003F5822275
:08177F00754A01755001803428
:0E178700C002C003C004121502AD82D004D00F
:0C17950003D0028D06BD02047582002204
:0A17A100755000754A00BE01028079
:0117AB000B32
:0B17AC008A828B838CF0E551121B89B0
:0417B7007582012214
:0417BB007582002211
:0E17BF00C0E0C0F0C082C083C002C003C004FE
:0C17CD00C005C0D075D0005391DFAA48C1
:0E17D900BA041190E678E0FB30E6030218D562
:0617E7007548000218D550
:0C17ED0090E678E0FB30E20975480075DA
:0517F90049010218D5B2
:0D17FE0090E678E0FB20E119BA03028003B9
:03180B00BA01110E
:0A180E0075490275480490E678E081
:07181800FB4440F00218D56B
:05181F00BA0102800E79
:05182400BA020280354C
:06182900BA030302189F40
:03182F000218D5C7
:091832007548027401B5430890E9
:07183B00E678E0FA4420F01A
:07184200E5472544FAE435F7
:0A18490045FBAC4690E679E0FD8A0D
:0B185300828B838CF0121B890218D5D9
:0C185E00AA43BA020890E678E0FB4420A0
:01186A00F08D
:0A186B00EA14F543BA010B754804B6
:0818750090E678E0FA4440F02F
:05187D00AA44AB45ACDC
:0618820046E547FD04F5F8
:0C18880047ED2AFAE43BFB90E679E0FD16
:0B1894008A828B838CF0121B89803647
:0A189F00E543FA14F543EA700D75F5
:0C18A900480490E678E0FA4440F080200B
:0518B500AA44AB45ACA4
:0618BA0046E547FD04F5C0
:0C18C00047ED2AFAE43BFB8A828B838C04
:0918CC00F0121BA2FA90E679F07B
:0E18D500D0D0D005D004D003D002D083D08272
:0518E300D0F0D0E0325E
:08011B00755200757504E4F54E
:0301230076F577F7
:0A18E800AA8274C05519F51974C0E6
:0718F200551AF51A74F055B8
:0A18F9001BF51BEA30E706740145F9
:0319030019F519BA
:0A190600EA30E60674044519F519ED
:0A191000EA30E50674104519F519D8
:0A191A00EA30E4067401451AF51ADC
:0A192400EA30E3067404451AF51AD0
:0A192E00EA30E2067410451AF51ABB
:0A193800EA30E1067401451BF51BBF
:0A194200EA30E0067404451BF51BB3
:01194C002278
:0A194D00AA8274CF551BF51B74C06D
:07195700551CF51C74C0557E
:06195E001DF51D74FC558F
:0A1964001EF51EEA30E70674104578
:03196E001BF51B4B
:0A197100EA30E6067401451CF51C7F
:0A197B00EA30E5067404451CF51C73
:0A198500EA30E4067410451CF51C5E
:0A198F00EA30E3067401451DF51D62
:0A199900EA30E2067404451DF51D56
:0A19A300EA30E1067410451DF51D41
:0A19AD00EA30E0067401451EF51E45
:0119B700220D
:0719B80074F3551EF51EE556
:0919BF0052700A755201740845CA
:0419C8001EF51E22C8
:0819CC007552007404451EF57C
:0219D4001E22D1
:0919D60074F3551EF51E7404455E
:0419DF001EF51E22B1
:0919E30074F3551EF51E7408454D
:0419EC001EF51E22A4
:0719F000740C451EF51E22D8
:0619F700E57530E5012258
:0619FD00E58020E3012259
:091A0300E57530E0661219D6AA5F
:0A1A0C0076E577C423CAC423541FF3
:0A1A16006ACA541FCA6ACA8A53AA9A
:0A1A200076E577C42354E0CAC4231E
:0C1A2A00CA6ACA54E0CA6AFB74E05AF5AC
:071A360054AA7674F05AF582
:0A1A3D0078EAC454F0FA74F05AF588
:031A4700797A02A7
:031A4A00BA2200BD
:0C1A4D00501CEA2453F8EA24FE540F2534
:0A1A590079F6EA042453F8EA145465
:081A63000F2578F60A0A80DF66
:031A6B007575028C
:0A1A6E00E57530E1387453C0E074F0
:0B1A780000C0E07440C0E07582221244
:0E1A83001515AA82158115811581EA700122C0
:051A9100AA76AB770509
:061A960076E4B5760205BE
:011A9C0077D2
:0B1A9D00BA0008BB010575750480034A
:031AA80075750150
:091AAB00E57530E2127578007552
:061AB40053007579007576
:061ABA0054001219F07542
:021AC0007508A7
:0A1AC200E57530E3217453C0E074B1
:0B1ACC0000C0E07440C0E07582021210
:0E1AD7001515AA82158115811581EA7001226C
:031AE50075751004
:0A1AE800E57530E44E7453C0E0745D
:0B1AF20000C0E07440C0E075820212EA
:0E1AFD0015E3AA82158115811581EA70012278
:041B0B0085530B856E
:031B0F00540C1261
:091B120019E374022579501475E1
:051B1B007900AA780525
:091B200078BA1F05757520800CD0
:051B290075750880073E
:051B2E00057905797541
:021B3300750833
:041B350085785385D7
:021B39007954DD
:011B3B002287
:03012600757B00E6
:081B3C00E57B240AF582E43484
:071B440000F583E50EF0053A
:051B4B007B757DFF75B4
:021B50007C0017
:091B520074FE257C4013E57C249F
:0A1B5B000AF582E43400F583E0FA95
:061B6500527D057C80E7C3
:061B6B00857D7A74FE2561
:061B71007B5003757B00B0
:011B7700224B
:0E3F000012011001FF00FF40392101010100F4
:043F0E0001020001AB
:0E3F12000902190001010080F40904000001F9
:0B3F2000FF00FF000705820100030105
:043F2C00040309047D
:0E3F3000140345006900670065006E006C0018
:063F3E0061006200730047
:0E3F440012035000690063006F004800610026
:043F52007200700089
:023F5600000069
:091B78007400F58690FED37C0593
:081B8100A3E582458370F922FF
:06008A00E478FFF6D8FD4A
:080068007901E94400601B7AF4
:0500700001901BCD789A
:030075000C75A067
:0A00780000E493F2A308B8000205AB
:08008200A0D9F4DAF275A0FF29
:0E1B890020F71030F6118883A88220F507F6A9
:051B9700A88375830026
:011B9C002226
:031B9D00F280F7DC
:021BA000F02231
:0400900075A00078DF
:0700940000E8440060077959
:06009B0000E4F309D8FCAB
:0800A100780CE84400600C79C2
:0B00A90001900000E4F0A3D8FCD9FA9D
:03005B0075817E2E
:0A005E00121BBEE58260030200568B
:0E1BA20020F71430F6148883A88220F507E699
:061BB000A88375830022EA
:031BB600E280F7D3
:031BB900E4932290
:021BBC00E02225
:041BBE00758200220A
:00000001FF
